{
  "_format": "hh-sol-artifact-1",
  "contractName": "FlowScriptRegistry",
  "sourceName": "contracts/FlowScriptRegistry.sol",
  "abi": [
    {
      "inputs": [],
      "stateMutability": "nonpayable",
      "type": "constructor"
    },
    {
      "inputs": [
        {
          "internalType": "address",
          "name": "caller",
          "type": "address"
        }
      ],
      "name": "NotExecutor",
      "type": "error"
    },
    {
      "inputs": [
        {
          "internalType": "uint256",
          "name": "flowId",
          "type": "uint256"
        },
        {
          "internalType": "address",
          "name": "caller",
          "type": "address"
        }
      ],
      "name": "NotOwner",
      "type": "error"
    },
    {
      "inputs": [
        {
          "internalType": "uint256",
          "name": "flowId",
          "type": "uint256"
        }
      ],
      "name": "ProgramNotActive",
      "type": "error"
    },
    {
      "anonymous": false,
      "inputs": [
        {
          "indexed": true,
          "internalType": "uint256",
          "name": "flowId",
          "type": "uint256"
        },
        {
          "indexed": true,
          "internalType": "address",
          "name": "owner",
          "type": "address"
        }
      ],
      "name": "FlowScriptCancelled",
      "type": "event"
    },
    {
      "anonymous": false,
      "inputs": [
        {
          "indexed": true,
          "internalType": "uint256",
          "name": "flowId",
          "type": "uint256"
        },
        {
          "indexed": true,
          "internalType": "address",
          "name": "owner",
          "type": "address"
        },
        {
          "indexed": false,
          "internalType": "bytes32",
          "name": "programHash",
          "type": "bytes32"
        },
        {
          "indexed": false,
          "internalType": "enum TriggerType",
          "name": "triggerType",
          "type": "uint8"
        }
      ],
      "name": "FlowScriptDeployed",
      "type": "event"
    },
    {
      "anonymous": false,
      "inputs": [
        {
          "indexed": true,
          "internalType": "uint256",
          "name": "flowId",
          "type": "uint256"
        },
        {
          "indexed": false,
          "internalType": "uint256",
          "name": "newVersion",
          "type": "uint256"
        }
      ],
      "name": "FlowScriptUpdated",
      "type": "event"
    },
    {
      "inputs": [
        {
          "internalType": "uint256",
          "name": "flowId",
          "type": "uint256"
        }
      ],
      "name": "cancel",
      "outputs": [],
      "stateMutability": "nonpayable",
      "type": "function"
    },
    {
      "inputs": [
        {
          "components": [
            {
              "internalType": "address",
              "name": "recipient",
              "type": "address"
            },
            {
              "internalType": "uint8",
              "name": "amountType",
              "type": "uint8"
            },
            {
              "internalType": "uint256",
              "name": "fixedAmount",
              "type": "uint256"
            },
            {
              "internalType": "uint8",
              "name": "percentBps",
              "type": "uint8"
            },
            {
              "internalType": "address",
              "name": "token",
              "type": "address"
            }
          ],
          "internalType": "struct PaymentRule[]",
          "name": "rules",
          "type": "tuple[]"
        },
        {
          "internalType": "enum TriggerType",
          "name": "triggerType",
          "type": "uint8"
        },
        {
          "internalType": "uint256",
          "name": "cronInterval",
          "type": "uint256"
        },
        {
          "internalType": "bool",
          "name": "receiptEnabled",
          "type": "bool"
        }
      ],
      "name": "deploy",
      "outputs": [
        {
          "internalType": "uint256",
          "name": "flowId",
          "type": "uint256"
        }
      ],
      "stateMutability": "nonpayable",
      "type": "function"
    },
    {
      "inputs": [],
      "name": "executor",
      "outputs": [
        {
          "internalType": "address",
          "name": "",
          "type": "address"
        }
      ],
      "stateMutability": "view",
      "type": "function"
    },
    {
      "inputs": [
        {
          "internalType": "address",
          "name": "_owner",
          "type": "address"
        }
      ],
      "name": "getOwnerPrograms",
      "outputs": [
        {
          "internalType": "uint256[]",
          "name": "",
          "type": "uint256[]"
        }
      ],
      "stateMutability": "view",
      "type": "function"
    },
    {
      "inputs": [
        {
          "internalType": "uint256",
          "name": "flowId",
          "type": "uint256"
        }
      ],
      "name": "getProgram",
      "outputs": [
        {
          "components": [
            {
              "internalType": "address",
              "name": "owner",
              "type": "address"
            },
            {
              "internalType": "enum TriggerType",
              "name": "triggerType",
              "type": "uint8"
            },
            {
              "internalType": "uint256",
              "name": "cronInterval",
              "type": "uint256"
            },
            {
              "internalType": "uint256",
              "name": "nextExecution",
              "type": "uint256"
            },
            {
              "components": [
                {
                  "internalType": "address",
                  "name": "recipient",
                  "type": "address"
                },
                {
                  "internalType": "uint8",
                  "name": "amountType",
                  "type": "uint8"
                },
                {
                  "internalType": "uint256",
                  "name": "fixedAmount",
                  "type": "uint256"
                },
                {
                  "internalType": "uint8",
                  "name": "percentBps",
                  "type": "uint8"
                },
                {
                  "internalType": "address",
                  "name": "token",
                  "type": "address"
                }
              ],
              "internalType": "struct PaymentRule[]",
              "name": "rules",
              "type": "tuple[]"
            },
            {
              "internalType": "bool",
              "name": "receiptEnabled",
              "type": "bool"
            },
            {
              "internalType": "bool",
              "name": "active",
              "type": "bool"
            },
            {
              "internalType": "uint256",
              "name": "createdAt",
              "type": "uint256"
            },
            {
              "internalType": "uint256",
              "name": "version",
              "type": "uint256"
            }
          ],
          "internalType": "struct FlowScriptProgram",
          "name": "",
          "type": "tuple"
        }
      ],
      "stateMutability": "view",
      "type": "function"
    },
    {
      "inputs": [],
      "name": "nextFlowId",
      "outputs": [
        {
          "internalType": "uint256",
          "name": "",
          "type": "uint256"
        }
      ],
      "stateMutability": "view",
      "type": "function"
    },
    {
      "inputs": [],
      "name": "owner",
      "outputs": [
        {
          "internalType": "address",
          "name": "",
          "type": "address"
        }
      ],
      "stateMutability": "view",
      "type": "function"
    },
    {
      "inputs": [
        {
          "internalType": "address",
          "name": "",
          "type": "address"
        },
        {
          "internalType": "uint256",
          "name": "",
          "type": "uint256"
        }
      ],
      "name": "ownerPrograms",
      "outputs": [
        {
          "internalType": "uint256",
          "name": "",
          "type": "uint256"
        }
      ],
      "stateMutability": "view",
      "type": "function"
    },
    {
      "inputs": [
        {
          "internalType": "uint256",
          "name": "flowId",
          "type": "uint256"
        }
      ],
      "name": "recordExecution",
      "outputs": [],
      "stateMutability": "nonpayable",
      "type": "function"
    },
    {
      "inputs": [
        {
          "internalType": "uint256",
          "name": "flowId",
          "type": "uint256"
        },
        {
          "internalType": "bool",
          "name": "active",
          "type": "bool"
        }
      ],
      "name": "setActive",
      "outputs": [],
      "stateMutability": "nonpayable",
      "type": "function"
    },
    {
      "inputs": [
        {
          "internalType": "address",
          "name": "_executor",
          "type": "address"
        }
      ],
      "name": "setExecutor",
      "outputs": [],
      "stateMutability": "nonpayable",
      "type": "function"
    },
    {
      "inputs": [],
      "name": "totalPrograms",
      "outputs": [
        {
          "internalType": "uint256",
          "name": "",
          "type": "uint256"
        }
      ],
      "stateMutability": "view",
      "type": "function"
    },
    {
      "inputs": [
        {
          "internalType": "uint256",
          "name": "flowId",
          "type": "uint256"
        },
        {
          "components": [
            {
              "internalType": "address",
              "name": "recipient",
              "type": "address"
            },
            {
              "internalType": "uint8",
              "name": "amountType",
              "type": "uint8"
            },
            {
              "internalType": "uint256",
              "name": "fixedAmount",
              "type": "uint256"
            },
            {
              "internalType": "uint8",
              "name": "percentBps",
              "type": "uint8"
            },
            {
              "internalType": "address",
              "name": "token",
              "type": "address"
            }
          ],
          "internalType": "struct PaymentRule[]",
          "name": "newRules",
          "type": "tuple[]"
        },
        {
          "internalType": "uint256",
          "name": "newCronInterval",
          "type": "uint256"
        },
        {
          "internalType": "bool",
          "name": "newReceiptEnabled",
          "type": "bool"
        }
      ],
      "name": "update",
      "outputs": [],
      "stateMutability": "nonpayable",
      "type": "function"
    }
  ],
  "bytecode": "0x608060405234801561001057600080fd5b50600480546001600160a01b03191633179055610f16806100326000396000f3fe608060405234801561001057600080fd5b50600436106100cf5760003560e01c80638da5cb5b1161008c578063c34c08e511610066578063c34c08e5146101b3578063c3ecf897146101c6578063d0182c99146101e6578063e60a955d146101ee57600080fd5b80638da5cb5b1461016c5780639211f67914610197578063ba57f609146101aa57600080fd5b80630e1a2de9146100d45780631c3c0ea8146100e957806326b0c8ca146100fc5780634021f5f51461012557806340e58ee51461013857806348303e741461014b575b600080fd5b6100e76100e236600461097d565b610201565b005b6100e76100f73660046109ab565b610299565b61010f61010a3660046109ab565b610301565b60405161011c91906109cf565b60405180910390f35b6100e7610133366004610a74565b61036d565b6100e761014636600461097d565b6104c2565b61015e610159366004610adb565b610541565b60405190815260200161011c565b60045461017f906001600160a01b031681565b6040516001600160a01b03909116815260200161011c565b61015e6101a5366004610b07565b610572565b61015e60005481565b60035461017f906001600160a01b031681565b6101d96101d436600461097d565b610721565b60405161011c9190610c20565b60005461015e565b6100e76101fc366004610cc3565b6108c5565b6003546001600160a01b0316331461024f5760405162461bcd60e51b815260206004820152600c60248201526b2737ba1032bc32b1baba37b960a11b60448201526064015b60405180910390fd5b6000818152600160205260408120908154600160a01b900460ff16600281111561027b5761027b610b6f565b0361029557600181015461028f9042610d05565b60028201555b5050565b6004546001600160a01b031633146102df5760405162461bcd60e51b81526020600482015260096024820152682737ba1037bbb732b960b91b6044820152606401610246565b600380546001600160a01b0319166001600160a01b0392909216919091179055565b6001600160a01b03811660009081526002602090815260409182902080548351818402810184019094528084526060939283018282801561036157602002820191906000526020600020905b81548152602001906001019080831161034d575b50505050509050919050565b600085815260016020526040902080546001600160a01b031633146103ae5760405163b9c0876160e01b815260048101879052336024820152604401610246565b6004810154610100900460ff166103db576040516315e4e56b60e11b815260048101879052602401610246565b6103e9600382016000610922565b60005b8481101561044d578160030186868381811061040a5761040a610d1e565b83546001810185556000948552602090942060a0909102929092019260030290910190506104388282610d43565b5050808061044590610df6565b9150506103ec565b506001810183905560048101805460ff191683151517905560068101805490600061047783610df6565b9190505550857febdcb6b9d034ea7ab89769a06e029ce3e30cc09c94235905ddd809812ba5043d82600601546040516104b291815260200190565b60405180910390a2505050505050565b600081815260016020526040902080546001600160a01b031633146105035760405163b9c0876160e01b815260048101839052336024820152604401610246565b60048101805461ff0019169055604051339083907fc307f563bba1319c904d3808576abe95eeb25d9470e549b16abd1f382f6ae5ba90600090a35050565b6002602052816000526040600020818154811061055d57600080fd5b90600052602060002001600091509150505481565b60008054818061058183610df6565b90915550600081815260016020526040902080546001600160a01b0319811633908117835592935090918691839160ff60a01b19166001600160a81b031990911617600160a01b8360028111156105da576105da610b6f565b0217905550600181018490556105f08442610d05565b600282015560048101805461ff00198515151661ffff19909116176101001790554260058201556001600682015560005b86811015610682578160030188888381811061063f5761063f610d1e565b83546001810185556000948552602090942060a09091029290920192600302909101905061066d8282610d43565b5050808061067a90610df6565b915050610621565b50336000908152600260209081526040808320805460018101825590845282842001859055516106ba918a918a918a918a9101610e0f565b604051602081830303815290604052805190602001209050336001600160a01b0316837f35620b2e9d80eac0921938d425f4872702bb13b52796fb03cc1c5182e5c3b942838960405161070e929190610ecc565b60405180910390a3505095945050505050565b61077560408051610120810190915260008082526020820190815260200160008152602001600081526020016060815260200160001515815260200160001515815260200160008152602001600081525090565b6000828152600160209081526040918290208251610120810190935280546001600160a01b03811684529091830190600160a01b900460ff1660028111156107bf576107bf610b6f565b60028111156107d0576107d0610b6f565b8152602001600182015481526020016002820154815260200160038201805480602002602001604051908101604052809291908181526020016000905b828210156108835760008481526020908190206040805160a0810182526003860290920180546001600160a01b03808216855260ff600160a01b9092048216858701526001808401549486019490945260029092015490811660608501526101009004166080830152908352909201910161080d565b50505090825250600482015460ff8082161515602084015261010090910416151560408201526005820154606082015260069091015460809091015292915050565b600082815260016020526040902080546001600160a01b031633146109065760405163b9c0876160e01b815260048101849052336024820152604401610246565b60040180549115156101000261ff001990921691909117905550565b50805460008255600302906000526020600020908101906109439190610946565b50565b5b808211156109795780546001600160a81b03199081168255600060018301556002820180549091169055600301610947565b5090565b60006020828403121561098f57600080fd5b5035919050565b6001600160a01b038116811461094357600080fd5b6000602082840312156109bd57600080fd5b81356109c881610996565b9392505050565b6020808252825182820181905260009190848201906040850190845b81811015610a07578351835292840192918401916001016109eb565b50909695505050505050565b60008083601f840112610a2557600080fd5b50813567ffffffffffffffff811115610a3d57600080fd5b60208301915083602060a083028501011115610a5857600080fd5b9250929050565b80358015158114610a6f57600080fd5b919050565b600080600080600060808688031215610a8c57600080fd5b85359450602086013567ffffffffffffffff811115610aaa57600080fd5b610ab688828901610a13565b90955093505060408601359150610acf60608701610a5f565b90509295509295909350565b60008060408385031215610aee57600080fd5b8235610af981610996565b946020939093013593505050565b600080600080600060808688031215610b1f57600080fd5b853567ffffffffffffffff811115610b3657600080fd5b610b4288828901610a13565b909650945050602086013560038110610b5a57600080fd5b925060408601359150610acf60608701610a5f565b634e487b7160e01b600052602160045260246000fd5b60038110610ba357634e487b7160e01b600052602160045260246000fd5b9052565b600081518084526020808501945080840160005b83811015610c1557815180516001600160a01b0390811689528482015160ff908116868b0152604080840151908b0152606080840151909116908a0152608091820151169088015260a09096019590820190600101610bbb565b509495945050505050565b60208152610c3a6020820183516001600160a01b03169052565b60006020830151610c4e6040840182610b85565b50604083015160608301526060830151608083015260808301516101208060a0850152610c7f610140850183610ba7565b915060a0850151610c9460c086018215159052565b5060c085015180151560e08601525060e085015161010085810191909152909401519390920192909252919050565b60008060408385031215610cd657600080fd5b82359150610ce660208401610a5f565b90509250929050565b634e487b7160e01b600052601160045260246000fd5b80820180821115610d1857610d18610cef565b92915050565b634e487b7160e01b600052603260045260246000fd5b60ff8116811461094357600080fd5b8135610d4e81610996565b81546001600160a01b031981166001600160a01b039290921691821783556020840135610d7a81610d34565b6001600160a81b03199190911690911760a09190911b60ff60a01b1617815560408201356001820155600281016060830135610db581610d34565b60ff811660ff19835416178255506080830135610dd181610996565b8154610100600160a81b031916600882901b610100600160a81b031617825550505050565b600060018201610e0857610e08610cef565b5060010190565b6060808252818101859052600090608080840188845b89811015610ea8578135610e3881610996565b6001600160a01b03908116845260209083820135610e5581610d34565b60ff80821684880152604093508386013584880152888601359350610e7984610d34565b9290921685880152838601359150610e9082610996565b168385015260a0928301929190910190600101610e25565b5050809350505050610ebd6020830185610b85565b82604083015295945050505050565b828152604081016109c86020830184610b8556fea2646970667358221220f70ac6ce6d5d25e61fa6e37ea6848abf9b879ae238279018afa35239b7a055e164736f6c63430008140033",
  "linkReferences": {},
  "deployedLinkReferences": {}
}