{
  "_format": "hh-sol-artifact-1",
  "contractName": "PayFiRegistry",
  "sourceName": "contracts/PayFiRegistry.sol",
  "abi": [
    {
      "inputs": [],
      "stateMutability": "nonpayable",
      "type": "constructor"
    },
    {
      "inputs": [
        {
          "internalType": "address",
          "name": "caller",
          "type": "address"
        }
      ],
      "name": "NotExecutor",
      "type": "error"
    },
    {
      "inputs": [
        {
          "internalType": "uint256",
          "name": "flowId",
          "type": "uint256"
        },
        {
          "internalType": "address",
          "name": "caller",
          "type": "address"
        }
      ],
      "name": "NotOwner",
      "type": "error"
    },
    {
      "inputs": [
        {
          "internalType": "uint256",
          "name": "flowId",
          "type": "uint256"
        }
      ],
      "name": "ProgramNotActive",
      "type": "error"
    },
    {
      "anonymous": false,
      "inputs": [
        {
          "indexed": true,
          "internalType": "uint256",
          "name": "flowId",
          "type": "uint256"
        },
        {
          "indexed": true,
          "internalType": "address",
          "name": "owner",
          "type": "address"
        }
      ],
      "name": "PayFiCancelled",
      "type": "event"
    },
    {
      "anonymous": false,
      "inputs": [
        {
          "indexed": true,
          "internalType": "uint256",
          "name": "flowId",
          "type": "uint256"
        },
        {
          "indexed": true,
          "internalType": "address",
          "name": "owner",
          "type": "address"
        },
        {
          "indexed": false,
          "internalType": "bytes32",
          "name": "programHash",
          "type": "bytes32"
        },
        {
          "indexed": false,
          "internalType": "enum TriggerType",
          "name": "triggerType",
          "type": "uint8"
        }
      ],
      "name": "PayFiDeployed",
      "type": "event"
    },
    {
      "anonymous": false,
      "inputs": [
        {
          "indexed": true,
          "internalType": "uint256",
          "name": "flowId",
          "type": "uint256"
        },
        {
          "indexed": false,
          "internalType": "uint256",
          "name": "newVersion",
          "type": "uint256"
        }
      ],
      "name": "PayFiUpdated",
      "type": "event"
    },
    {
      "inputs": [
        {
          "internalType": "uint256",
          "name": "flowId",
          "type": "uint256"
        }
      ],
      "name": "cancel",
      "outputs": [],
      "stateMutability": "nonpayable",
      "type": "function"
    },
    {
      "inputs": [
        {
          "components": [
            {
              "internalType": "address",
              "name": "recipient",
              "type": "address"
            },
            {
              "internalType": "uint8",
              "name": "amountType",
              "type": "uint8"
            },
            {
              "internalType": "uint256",
              "name": "fixedAmount",
              "type": "uint256"
            },
            {
              "internalType": "uint8",
              "name": "percentBps",
              "type": "uint8"
            },
            {
              "internalType": "address",
              "name": "token",
              "type": "address"
            }
          ],
          "internalType": "struct PaymentRule[]",
          "name": "rules",
          "type": "tuple[]"
        },
        {
          "internalType": "enum TriggerType",
          "name": "triggerType",
          "type": "uint8"
        },
        {
          "internalType": "uint256",
          "name": "cronInterval",
          "type": "uint256"
        },
        {
          "internalType": "bool",
          "name": "receiptEnabled",
          "type": "bool"
        }
      ],
      "name": "deploy",
      "outputs": [
        {
          "internalType": "uint256",
          "name": "flowId",
          "type": "uint256"
        }
      ],
      "stateMutability": "payable",
      "type": "function"
    },
    {
      "inputs": [],
      "name": "executor",
      "outputs": [
        {
          "internalType": "address",
          "name": "",
          "type": "address"
        }
      ],
      "stateMutability": "view",
      "type": "function"
    },
    {
      "inputs": [
        {
          "internalType": "address",
          "name": "_owner",
          "type": "address"
        }
      ],
      "name": "getOwnerPrograms",
      "outputs": [
        {
          "internalType": "uint256[]",
          "name": "",
          "type": "uint256[]"
        }
      ],
      "stateMutability": "view",
      "type": "function"
    },
    {
      "inputs": [
        {
          "internalType": "uint256",
          "name": "flowId",
          "type": "uint256"
        }
      ],
      "name": "getProgram",
      "outputs": [
        {
          "components": [
            {
              "internalType": "address",
              "name": "owner",
              "type": "address"
            },
            {
              "internalType": "enum TriggerType",
              "name": "triggerType",
              "type": "uint8"
            },
            {
              "internalType": "uint256",
              "name": "cronInterval",
              "type": "uint256"
            },
            {
              "internalType": "uint256",
              "name": "nextExecution",
              "type": "uint256"
            },
            {
              "components": [
                {
                  "internalType": "address",
                  "name": "recipient",
                  "type": "address"
                },
                {
                  "internalType": "uint8",
                  "name": "amountType",
                  "type": "uint8"
                },
                {
                  "internalType": "uint256",
                  "name": "fixedAmount",
                  "type": "uint256"
                },
                {
                  "internalType": "uint8",
                  "name": "percentBps",
                  "type": "uint8"
                },
                {
                  "internalType": "address",
                  "name": "token",
                  "type": "address"
                }
              ],
              "internalType": "struct PaymentRule[]",
              "name": "rules",
              "type": "tuple[]"
            },
            {
              "internalType": "bool",
              "name": "receiptEnabled",
              "type": "bool"
            },
            {
              "internalType": "bool",
              "name": "active",
              "type": "bool"
            },
            {
              "internalType": "uint256",
              "name": "createdAt",
              "type": "uint256"
            },
            {
              "internalType": "uint256",
              "name": "version",
              "type": "uint256"
            }
          ],
          "internalType": "struct PayFiProgram",
          "name": "",
          "type": "tuple"
        }
      ],
      "stateMutability": "view",
      "type": "function"
    },
    {
      "inputs": [],
      "name": "nextFlowId",
      "outputs": [
        {
          "internalType": "uint256",
          "name": "",
          "type": "uint256"
        }
      ],
      "stateMutability": "view",
      "type": "function"
    },
    {
      "inputs": [],
      "name": "owner",
      "outputs": [
        {
          "internalType": "address",
          "name": "",
          "type": "address"
        }
      ],
      "stateMutability": "view",
      "type": "function"
    },
    {
      "inputs": [
        {
          "internalType": "address",
          "name": "",
          "type": "address"
        },
        {
          "internalType": "uint256",
          "name": "",
          "type": "uint256"
        }
      ],
      "name": "ownerPrograms",
      "outputs": [
        {
          "internalType": "uint256",
          "name": "",
          "type": "uint256"
        }
      ],
      "stateMutability": "view",
      "type": "function"
    },
    {
      "inputs": [
        {
          "internalType": "uint256",
          "name": "flowId",
          "type": "uint256"
        }
      ],
      "name": "recordExecution",
      "outputs": [],
      "stateMutability": "nonpayable",
      "type": "function"
    },
    {
      "inputs": [
        {
          "internalType": "uint256",
          "name": "flowId",
          "type": "uint256"
        },
        {
          "internalType": "bool",
          "name": "active",
          "type": "bool"
        }
      ],
      "name": "setActive",
      "outputs": [],
      "stateMutability": "nonpayable",
      "type": "function"
    },
    {
      "inputs": [
        {
          "internalType": "address",
          "name": "_executor",
          "type": "address"
        }
      ],
      "name": "setExecutor",
      "outputs": [],
      "stateMutability": "nonpayable",
      "type": "function"
    },
    {
      "inputs": [],
      "name": "totalPrograms",
      "outputs": [
        {
          "internalType": "uint256",
          "name": "",
          "type": "uint256"
        }
      ],
      "stateMutability": "view",
      "type": "function"
    },
    {
      "inputs": [
        {
          "internalType": "uint256",
          "name": "flowId",
          "type": "uint256"
        },
        {
          "components": [
            {
              "internalType": "address",
              "name": "recipient",
              "type": "address"
            },
            {
              "internalType": "uint8",
              "name": "amountType",
              "type": "uint8"
            },
            {
              "internalType": "uint256",
              "name": "fixedAmount",
              "type": "uint256"
            },
            {
              "internalType": "uint8",
              "name": "percentBps",
              "type": "uint8"
            },
            {
              "internalType": "address",
              "name": "token",
              "type": "address"
            }
          ],
          "internalType": "struct PaymentRule[]",
          "name": "newRules",
          "type": "tuple[]"
        },
        {
          "internalType": "uint256",
          "name": "newCronInterval",
          "type": "uint256"
        },
        {
          "internalType": "bool",
          "name": "newReceiptEnabled",
          "type": "bool"
        }
      ],
      "name": "update",
      "outputs": [],
      "stateMutability": "nonpayable",
      "type": "function"
    }
  ],
  "bytecode": "0x608060405234801561001057600080fd5b50600480546001600160a01b0319163317905561101e806100326000396000f3fe6080604052600436106100c25760003560e01c80638da5cb5b1161007f578063c34c08e511610059578063c34c08e51461020e578063c3ecf8971461022e578063d0182c991461025b578063e60a955d1461027057600080fd5b80638da5cb5b146101ad5780639211f679146101e5578063ba57f609146101f857600080fd5b80630e1a2de9146100c75780631c3c0ea8146100e957806326b0c8ca146101095780634021f5f51461013f57806340e58ee51461015f57806348303e741461017f575b600080fd5b3480156100d357600080fd5b506100e76100e2366004610a85565b610290565b005b3480156100f557600080fd5b506100e7610104366004610ab3565b610328565b34801561011557600080fd5b50610129610124366004610ab3565b610390565b6040516101369190610ad7565b60405180910390f35b34801561014b57600080fd5b506100e761015a366004610b7c565b6103fc565b34801561016b57600080fd5b506100e761017a366004610a85565b610551565b34801561018b57600080fd5b5061019f61019a366004610be3565b6105d0565b604051908152602001610136565b3480156101b957600080fd5b506004546101cd906001600160a01b031681565b6040516001600160a01b039091168152602001610136565b61019f6101f3366004610c0f565b610601565b34801561020457600080fd5b5061019f60005481565b34801561021a57600080fd5b506003546101cd906001600160a01b031681565b34801561023a57600080fd5b5061024e610249366004610a85565b610829565b6040516101369190610d28565b34801561026757600080fd5b5060005461019f565b34801561027c57600080fd5b506100e761028b366004610dcb565b6109cd565b6003546001600160a01b031633146102de5760405162461bcd60e51b815260206004820152600c60248201526b2737ba1032bc32b1baba37b960a11b60448201526064015b60405180910390fd5b6000818152600160205260408120908154600160a01b900460ff16600281111561030a5761030a610c77565b0361032457600181015461031e9042610e0d565b60028201555b5050565b6004546001600160a01b0316331461036e5760405162461bcd60e51b81526020600482015260096024820152682737ba1037bbb732b960b91b60448201526064016102d5565b600380546001600160a01b0319166001600160a01b0392909216919091179055565b6001600160a01b0381166000908152600260209081526040918290208054835181840281018401909452808452606093928301828280156103f057602002820191906000526020600020905b8154815260200190600101908083116103dc575b50505050509050919050565b600085815260016020526040902080546001600160a01b0316331461043d5760405163b9c0876160e01b8152600481018790523360248201526044016102d5565b6004810154610100900460ff1661046a576040516315e4e56b60e11b8152600481018790526024016102d5565b610478600382016000610a2a565b60005b848110156104dc578160030186868381811061049957610499610e26565b83546001810185556000948552602090942060a0909102929092019260030290910190506104c78282610e4b565b505080806104d490610efe565b91505061047b565b506001810183905560048101805460ff191683151517905560068101805490600061050683610efe565b9190505550857f230a87fa955a2f723248a7f7cdfec045f2be045a476cd5a14968ea8c48ec3e47826006015460405161054191815260200190565b60405180910390a2505050505050565b600081815260016020526040902080546001600160a01b031633146105925760405163b9c0876160e01b8152600481018390523360248201526044016102d5565b60048101805461ff0019169055604051339083907fc7a588fb6fbf3746e64ed2fdf95dd65be25a16bbe81727d08e79be494ea647e190600090a35050565b600260205281600052604060002081815481106105ec57600080fd5b90600052602060002001600091509150505481565b60008054818061061083610efe565b90915550600081815260016020526040902080546001600160a01b0319811633908117835592935090918691839160ff60a01b19166001600160a81b031990911617600160a01b83600281111561066957610669610c77565b02179055506001810184905561067f8442610e0d565b600282015560048101805461ff00198515151661ffff19909116176101001790554260058201556001600682015560005b8681101561071157816003018888838181106106ce576106ce610e26565b83546001810185556000948552602090942060a0909102929092019260030290910190506106fc8282610e4b565b5050808061070990610efe565b9150506106b0565b5033600090815260026020908152604082208054600181018255908352912001829055341580159061074d57506003546001600160a01b031615155b156107a9576003546040516000916001600160a01b03169034908381818185875af1925050503d806000811461079f576040519150601f19603f3d011682016040523d82523d6000602084013e6107a4565b606091505b505050505b6000878787876040516020016107c29493929190610f17565b604051602081830303815290604052805190602001209050336001600160a01b0316837f65f3c65a991e5fe825d1ed7108983217ec7a3f4ec4d3a983f043c03551b30ec88389604051610816929190610fd4565b60405180910390a3505095945050505050565b61087d60408051610120810190915260008082526020820190815260200160008152602001600081526020016060815260200160001515815260200160001515815260200160008152602001600081525090565b6000828152600160209081526040918290208251610120810190935280546001600160a01b03811684529091830190600160a01b900460ff1660028111156108c7576108c7610c77565b60028111156108d8576108d8610c77565b8152602001600182015481526020016002820154815260200160038201805480602002602001604051908101604052809291908181526020016000905b8282101561098b5760008481526020908190206040805160a0810182526003860290920180546001600160a01b03808216855260ff600160a01b90920482168587015260018084015494860194909452600290920154908116606085015261010090041660808301529083529092019101610915565b50505090825250600482015460ff8082161515602084015261010090910416151560408201526005820154606082015260069091015460809091015292915050565b600082815260016020526040902080546001600160a01b03163314610a0e5760405163b9c0876160e01b8152600481018490523360248201526044016102d5565b60040180549115156101000261ff001990921691909117905550565b5080546000825560030290600052602060002090810190610a4b9190610a4e565b50565b5b80821115610a815780546001600160a81b03199081168255600060018301556002820180549091169055600301610a4f565b5090565b600060208284031215610a9757600080fd5b5035919050565b6001600160a01b0381168114610a4b57600080fd5b600060208284031215610ac557600080fd5b8135610ad081610a9e565b9392505050565b6020808252825182820181905260009190848201906040850190845b81811015610b0f57835183529284019291840191600101610af3565b50909695505050505050565b60008083601f840112610b2d57600080fd5b50813567ffffffffffffffff811115610b4557600080fd5b60208301915083602060a083028501011115610b6057600080fd5b9250929050565b80358015158114610b7757600080fd5b919050565b600080600080600060808688031215610b9457600080fd5b85359450602086013567ffffffffffffffff811115610bb257600080fd5b610bbe88828901610b1b565b90955093505060408601359150610bd760608701610b67565b90509295509295909350565b60008060408385031215610bf657600080fd5b8235610c0181610a9e565b946020939093013593505050565b600080600080600060808688031215610c2757600080fd5b853567ffffffffffffffff811115610c3e57600080fd5b610c4a88828901610b1b565b909650945050602086013560038110610c6257600080fd5b925060408601359150610bd760608701610b67565b634e487b7160e01b600052602160045260246000fd5b60038110610cab57634e487b7160e01b600052602160045260246000fd5b9052565b600081518084526020808501945080840160005b83811015610d1d57815180516001600160a01b0390811689528482015160ff908116868b0152604080840151908b0152606080840151909116908a0152608091820151169088015260a09096019590820190600101610cc3565b509495945050505050565b60208152610d426020820183516001600160a01b03169052565b60006020830151610d566040840182610c8d565b50604083015160608301526060830151608083015260808301516101208060a0850152610d87610140850183610caf565b915060a0850151610d9c60c086018215159052565b5060c085015180151560e08601525060e085015161010085810191909152909401519390920192909252919050565b60008060408385031215610dde57600080fd5b82359150610dee60208401610b67565b90509250929050565b634e487b7160e01b600052601160045260246000fd5b80820180821115610e2057610e20610df7565b92915050565b634e487b7160e01b600052603260045260246000fd5b60ff81168114610a4b57600080fd5b8135610e5681610a9e565b81546001600160a01b031981166001600160a01b039290921691821783556020840135610e8281610e3c565b6001600160a81b03199190911690911760a09190911b60ff60a01b1617815560408201356001820155600281016060830135610ebd81610e3c565b60ff811660ff19835416178255506080830135610ed981610a9e565b8154610100600160a81b031916600882901b610100600160a81b031617825550505050565b600060018201610f1057610f10610df7565b5060010190565b6060808252818101859052600090608080840188845b89811015610fb0578135610f4081610a9e565b6001600160a01b03908116845260209083820135610f5d81610e3c565b60ff80821684880152604093508386013584880152888601359350610f8184610e3c565b9290921685880152838601359150610f9882610a9e565b168385015260a0928301929190910190600101610f2d565b5050809350505050610fc56020830185610c8d565b82604083015295945050505050565b82815260408101610ad06020830184610c8d56fea2646970667358221220f0908044ce7730ceeeace3eebdd6047c0f52f0f2aa59dd36d6e11bfc67c2a3ff64736f6c63430008140033",
  "linkReferences": {},
  "deployedLinkReferences": {}
}