{
  "_format": "hh-sol-artifact-1",
  "contractName": "PayFiExecutor",
  "sourceName": "contracts/PayFiExecutor.sol",
  "abi": [
    {
      "inputs": [
        {
          "internalType": "address",
          "name": "_registry",
          "type": "address"
        },
        {
          "internalType": "address",
          "name": "_hspSettlement",
          "type": "address"
        },
        {
          "internalType": "address",
          "name": "_kycSBT",
          "type": "address"
        }
      ],
      "stateMutability": "nonpayable",
      "type": "constructor"
    },
    {
      "inputs": [
        {
          "internalType": "address",
          "name": "token",
          "type": "address"
        },
        {
          "internalType": "uint256",
          "name": "required",
          "type": "uint256"
        },
        {
          "internalType": "uint256",
          "name": "available",
          "type": "uint256"
        }
      ],
      "name": "InsufficientBalance",
      "type": "error"
    },
    {
      "inputs": [
        {
          "internalType": "address",
          "name": "user",
          "type": "address"
        },
        {
          "internalType": "uint8",
          "name": "level",
          "type": "uint8"
        }
      ],
      "name": "KYCNotVerified",
      "type": "error"
    },
    {
      "inputs": [
        {
          "internalType": "address",
          "name": "user",
          "type": "address"
        }
      ],
      "name": "KYCRevoked",
      "type": "error"
    },
    {
      "inputs": [
        {
          "internalType": "uint256",
          "name": "amount",
          "type": "uint256"
        },
        {
          "internalType": "uint256",
          "name": "limit",
          "type": "uint256"
        }
      ],
      "name": "PositionLimitExceeded",
      "type": "error"
    },
    {
      "inputs": [
        {
          "internalType": "uint256",
          "name": "flowId",
          "type": "uint256"
        }
      ],
      "name": "ProgramNotActive",
      "type": "error"
    },
    {
      "inputs": [
        {
          "internalType": "address",
          "name": "token",
          "type": "address"
        }
      ],
      "name": "SafeERC20FailedOperation",
      "type": "error"
    },
    {
      "inputs": [
        {
          "internalType": "uint256",
          "name": "flowId",
          "type": "uint256"
        },
        {
          "internalType": "uint256",
          "name": "nextExecution",
          "type": "uint256"
        }
      ],
      "name": "TriggerNotReady",
      "type": "error"
    },
    {
      "anonymous": false,
      "inputs": [
        {
          "indexed": true,
          "internalType": "uint256",
          "name": "flowId",
          "type": "uint256"
        },
        {
          "indexed": false,
          "internalType": "bytes32",
          "name": "hspMessageId",
          "type": "bytes32"
        }
      ],
      "name": "HSPReceiptEmitted",
      "type": "event"
    },
    {
      "anonymous": false,
      "inputs": [
        {
          "indexed": true,
          "internalType": "uint256",
          "name": "flowId",
          "type": "uint256"
        },
        {
          "indexed": true,
          "internalType": "address",
          "name": "owner",
          "type": "address"
        },
        {
          "indexed": false,
          "internalType": "uint256",
          "name": "rulesExecuted",
          "type": "uint256"
        },
        {
          "indexed": false,
          "internalType": "uint256",
          "name": "timestamp",
          "type": "uint256"
        }
      ],
      "name": "PayFiExecuted",
      "type": "event"
    },
    {
      "anonymous": false,
      "inputs": [
        {
          "indexed": true,
          "internalType": "uint256",
          "name": "flowId",
          "type": "uint256"
        },
        {
          "indexed": true,
          "internalType": "address",
          "name": "recipient",
          "type": "address"
        },
        {
          "indexed": false,
          "internalType": "address",
          "name": "token",
          "type": "address"
        },
        {
          "indexed": false,
          "internalType": "uint256",
          "name": "amount",
          "type": "uint256"
        }
      ],
      "name": "PaymentDispatched",
      "type": "event"
    },
    {
      "inputs": [
        {
          "internalType": "uint256",
          "name": "flowId",
          "type": "uint256"
        }
      ],
      "name": "execute",
      "outputs": [],
      "stateMutability": "nonpayable",
      "type": "function"
    },
    {
      "inputs": [],
      "name": "hspSettlement",
      "outputs": [
        {
          "internalType": "address",
          "name": "",
          "type": "address"
        }
      ],
      "stateMutability": "view",
      "type": "function"
    },
    {
      "inputs": [],
      "name": "keeper",
      "outputs": [
        {
          "internalType": "address",
          "name": "",
          "type": "address"
        }
      ],
      "stateMutability": "view",
      "type": "function"
    },
    {
      "inputs": [],
      "name": "kycSBT",
      "outputs": [
        {
          "internalType": "contract IKycSBT",
          "name": "",
          "type": "address"
        }
      ],
      "stateMutability": "view",
      "type": "function"
    },
    {
      "inputs": [],
      "name": "minKycLevel",
      "outputs": [
        {
          "internalType": "uint8",
          "name": "",
          "type": "uint8"
        }
      ],
      "stateMutability": "view",
      "type": "function"
    },
    {
      "inputs": [],
      "name": "owner",
      "outputs": [
        {
          "internalType": "address",
          "name": "",
          "type": "address"
        }
      ],
      "stateMutability": "view",
      "type": "function"
    },
    {
      "inputs": [
        {
          "internalType": "uint256",
          "name": "",
          "type": "uint256"
        }
      ],
      "name": "positionLimits",
      "outputs": [
        {
          "internalType": "uint256",
          "name": "",
          "type": "uint256"
        }
      ],
      "stateMutability": "view",
      "type": "function"
    },
    {
      "inputs": [],
      "name": "registry",
      "outputs": [
        {
          "internalType": "contract PayFiRegistry",
          "name": "",
          "type": "address"
        }
      ],
      "stateMutability": "view",
      "type": "function"
    },
    {
      "inputs": [
        {
          "internalType": "address",
          "name": "_hsp",
          "type": "address"
        }
      ],
      "name": "setHSPSettlement",
      "outputs": [],
      "stateMutability": "nonpayable",
      "type": "function"
    },
    {
      "inputs": [
        {
          "internalType": "address",
          "name": "_keeper",
          "type": "address"
        }
      ],
      "name": "setKeeper",
      "outputs": [],
      "stateMutability": "nonpayable",
      "type": "function"
    },
    {
      "stateMutability": "payable",
      "type": "receive"
    }
  ],
  "bytecode": "0x6000805460ff60a01b1916600160a01b17815561016060405260c0908152690a968163f0a57b40000060e0526969e10de76676d0800000610100526a0422ca8b0a00a425000000610120526000196101405262000061906001906005620000d9565b503480156200006f57600080fd5b506040516200148c3803806200148c833981016040819052620000929162000150565b6001600160a01b03928316608052600080549284166001600160a01b031993841617905590911660a05260078054821633908117909155600680549092161790556200019a565b82600581019282156200010a579160200282015b828111156200010a578251825591602001919060010190620000ed565b50620001189291506200011c565b5090565b5b808211156200011857600081556001016200011d565b80516001600160a01b03811681146200014b57600080fd5b919050565b6000806000606084860312156200016657600080fd5b620001718462000133565b9250620001816020850162000133565b9150620001916040850162000133565b90509250925092565b60805160a0516112b1620001db6000396000818160b30152818161046101526104f70152600081816101460152818161034e01526107b601526112b16000f3fe6080604052600436106100955760003560e01c806394b5361e1161005957806394b5361e14610188578063a184c9ca146101b6578063aced1661146101d6578063b4d7ed3b146101f6578063fe0d94c11461022957600080fd5b8063557865a6146100a15780636b16ede8146100f2578063748747e6146101145780637b103999146101345780638da5cb5b1461016857600080fd5b3661009c57005b600080fd5b3480156100ad57600080fd5b506100d57f000000000000000000000000000000000000000000000000000000000000000081565b6040516001600160a01b0390911681526020015b60405180910390f35b3480156100fe57600080fd5b5061011261010d366004610d8b565b610249565b005b34801561012057600080fd5b5061011261012f366004610d8b565b6102b6565b34801561014057600080fd5b506100d57f000000000000000000000000000000000000000000000000000000000000000081565b34801561017457600080fd5b506007546100d5906001600160a01b031681565b34801561019457600080fd5b506101a86101a3366004610daf565b61031e565b6040519081526020016100e9565b3480156101c257600080fd5b506000546100d5906001600160a01b031681565b3480156101e257600080fd5b506006546100d5906001600160a01b031681565b34801561020257600080fd5b5060005461021790600160a01b900460ff1681565b60405160ff90911681526020016100e9565b34801561023557600080fd5b50610112610244366004610daf565b610335565b6007546001600160a01b031633146102945760405162461bcd60e51b81526020600482015260096024820152682737ba1037bbb732b960b91b60448201526064015b60405180910390fd5b600080546001600160a01b0319166001600160a01b0392909216919091179055565b6007546001600160a01b031633146102fc5760405162461bcd60e51b81526020600482015260096024820152682737ba1037bbb732b960b91b604482015260640161028b565b600680546001600160a01b0319166001600160a01b0392909216919091179055565b6001816005811061032e57600080fd5b0154905081565b60405163c3ecf89760e01b8152600481018290526000907f00000000000000000000000000000000000000000000000000000000000000006001600160a01b03169063c3ecf89790602401600060405180830381865afa15801561039d573d6000803e3d6000fd5b505050506040513d6000823e601f3d908101601f191682016040526103c59190810190610f7e565b6006549091506001600160a01b03163314806103eb57506007546001600160a01b031633145b806103ff575080516001600160a01b031633145b61043b5760405162461bcd60e51b815260206004820152600d60248201526c1058d8d95cdcc819195b9a5959609a1b604482015260640161028b565b805160405163f72c436f60e01b81526001600160a01b03918216600482015260009182917f00000000000000000000000000000000000000000000000000000000000000009091169063f72c436f906024016040805180830381865afa1580156104a9573d6000803e3d6000fd5b505050506040513d601f19601f820116820180604052508101906104cd919061105b565b8451604051637f37072b60e01b81526001600160a01b0391821660048201529294509092506000917f000000000000000000000000000000000000000000000000000000000000000090911690637f37072b90602401600060405180830381865afa158015610540573d6000803e3d6000fd5b505050506040513d6000823e601f3d908101601f1916820160405261056891908101906110c1565b509250600291506105769050565b8160028111156105885761058861117f565b036105b4578351604051637da6535160e11b81526001600160a01b03909116600482015260240161028b565b8215806105d0575060005460ff600160a01b9091048116908316105b156106055783516040516372c2085b60e01b81526001600160a01b03909116600482015260ff8316602482015260440161028b565b8360c0015161062a576040516315e4e56b60e11b81526004810186905260240161028b565b6000846020015160028111156106425761064261117f565b0361067c57836060015142101561067c57606084015160405163036c55f360e51b815261028b918791600401918252602082015260400190565b6000805b85608001515181101561079f576000866080015182815181106106a5576106a5611195565b6020026020010151905060006106bf8289600001516108c3565b9050806000036106d057505061078d565b600060018760ff16600581106106e8576106e8611195565b01549050808211156107175760405163bf32970b60e01b8152600481018390526024810182905260440161028b565b61072b8a84600001518560800151856109cb565b82516080840151604080516001600160a01b0392831681526020810186905291909216918c917f44d031eb9d99c0cf22acdbd9dc30a6441fc4b45f530886a27942672e224b9556910160405180910390a384610786816111c1565b9550505050505b80610797816111c1565b915050610680565b50604051630e1a2de960e01b8152600481018790527f00000000000000000000000000000000000000000000000000000000000000006001600160a01b031690630e1a2de990602401600060405180830381600087803b15801561080257600080fd5b505af1158015610816573d6000803e3d6000fd5b505050508460a001511561087357600061083587876000015184610b7b565b9050867f879cc2bddc135126e7220659218a07ee837a9a0793f38114b4945f324f6629ee8260405161086991815260200190565b60405180910390a2505b8451604080518381524260208201526001600160a01b039092169188917fd1b6990e881667990b3646fad74cb4d824141168d60aa2239920b651ead8af77910160405180910390a3505050505050565b6000826020015160ff166000036108df575060408201516109c5565b826020015160ff166001036109af5760808301516000906001600160a01b0316156109795760808401516040516370a0823160e01b81526001600160a01b038581166004830152909116906370a0823190602401602060405180830381865afa158015610950573d6000803e3d6000fd5b505050506040513d601f19601f8201168201806040525081019061097491906111da565b610985565b826001600160a01b0316315b9050612710846060015160ff168261099d91906111f3565b6109a7919061120a565b9150506109c5565b826020015160ff166002036109c5575060408201515b92915050565b60408051602081018690526001600160a01b03858116828401528481166060830152608082018490524260a0808401919091528351808403909101815260c08301909352600080549092911690610a2690849060e40161122c565b60408051601f198184030181529181526020820180516001600160e01b03166302d71eb760e51b17905251610a5b919061125f565b6000604051808303816000865af19150503d8060008114610a98576040519150601f19603f3d011682016040523d82523d6000602084013e610a9d565b606091505b50909150506001600160a01b038416610b5e576000856001600160a01b03168461c35090604051600060405180830381858888f193505050503d8060008114610b02576040519150601f19603f3d011682016040523d82523d6000602084013e610b07565b606091505b5050905080610b585760405162461bcd60e51b815260206004820152601a60248201527f4e61746976652048534b207472616e73666572206661696c6564000000000000604482015260640161028b565b50610b73565b610b736001600160a01b038516338786610cc5565b505050505050565b60408051602081018590526001600160a01b03848116828401526060820184905242608083015260a080830152601860c08301527f506179466920657865637574696f6e20636f6d706c657465000000000000000060e08084019190915283518084039091018152610100830190935260008054909392849283921690610c079085906101240161122c565b60408051601f198184030181529181526020820180516001600160e01b0316634707115760e01b17905251610c3c919061125f565b6000604051808303816000865af19150503d8060008114610c79576040519150601f19603f3d011682016040523d82523d6000602084013e610c7e565b606091505b5091509150818015610c91575080516020145b15610cb15780806020019051810190610caa91906111da565b9350610cbb565b8251602084012093505b5050509392505050565b610cd3848484846001610d01565b610cfb57604051635274afe760e01b81526001600160a01b038516600482015260240161028b565b50505050565b6040516323b872dd60e01b60008181526001600160a01b038781166004528616602452604485905291602083606481808c5af192506001600051148316610d61578383151615610d54573d6000823e3d81fd5b6000883b113d1516831692505b60405250600060605295945050505050565b6001600160a01b0381168114610d8857600080fd5b50565b600060208284031215610d9d57600080fd5b8135610da881610d73565b9392505050565b600060208284031215610dc157600080fd5b5035919050565b634e487b7160e01b600052604160045260246000fd5b60405160a0810167ffffffffffffffff81118282101715610e0157610e01610dc8565b60405290565b604051610120810167ffffffffffffffff81118282101715610e0157610e01610dc8565b604051601f8201601f1916810167ffffffffffffffff81118282101715610e5457610e54610dc8565b604052919050565b8051610e6781610d73565b919050565b805160038110610e6757600080fd5b805160ff81168114610e6757600080fd5b600082601f830112610e9d57600080fd5b8151602067ffffffffffffffff821115610eb957610eb9610dc8565b610ec7818360051b01610e2b565b82815260a09283028501820192828201919087851115610ee657600080fd5b8387015b85811015610f615781818a031215610f025760008081fd5b610f0a610dde565b8151610f1581610d73565b8152610f22828701610e7b565b81870152604082810151908201526060610f3d818401610e7b565b90820152608082810151610f5081610d73565b908201528452928401928101610eea565b5090979650505050505050565b80518015158114610e6757600080fd5b600060208284031215610f9057600080fd5b815167ffffffffffffffff80821115610fa857600080fd5b908301906101208286031215610fbd57600080fd5b610fc5610e07565b610fce83610e5c565b8152610fdc60208401610e6c565b6020820152604083015160408201526060830151606082015260808301518281111561100757600080fd5b61101387828601610e8c565b60808301525061102560a08401610f6e565b60a082015261103660c08401610f6e565b60c082015260e083810151908201526101009283015192810192909252509392505050565b6000806040838503121561106e57600080fd5b61107783610f6e565b915061108560208401610e7b565b90509250929050565b60005b838110156110a9578181015183820152602001611091565b50506000910152565b805160058110610e6757600080fd5b600080600080608085870312156110d757600080fd5b845167ffffffffffffffff808211156110ef57600080fd5b818701915087601f83011261110357600080fd5b81518181111561111557611115610dc8565b611128601f8201601f1916602001610e2b565b915080825288602082850101111561113f57600080fd5b61115081602084016020860161108e565b5094506111619050602086016110b2565b925061116f60408601610e6c565b6060959095015193969295505050565b634e487b7160e01b600052602160045260246000fd5b634e487b7160e01b600052603260045260246000fd5b634e487b7160e01b600052601160045260246000fd5b6000600182016111d3576111d36111ab565b5060010190565b6000602082840312156111ec57600080fd5b5051919050565b80820281158282048414176109c5576109c56111ab565b60008261122757634e487b7160e01b600052601260045260246000fd5b500490565b602081526000825180602084015261124b81604085016020870161108e565b601f01601f19169190910160400192915050565b6000825161127181846020870161108e565b919091019291505056fea26469706673582212203284a4d4d1a547e8d63f93156328a0a8e01287176738daf861b59bdaea59822d64736f6c63430008140033",
  "linkReferences": {},
  "deployedLinkReferences": {}
}